{"abi":[{"type":"constructor","inputs":[],"stateMutability":"nonpayable"},{"type":"function","name":"GIFT_EXPIRY","inputs":[],"outputs":[{"name":"","type":"uint256","internalType":"uint256"}],"stateMutability":"view"},{"type":"function","name":"claimGift","inputs":[{"name":"giftId","type":"bytes32","internalType":"bytes32"}],"outputs":[],"stateMutability":"nonpayable"},{"type":"function","name":"createETHGift","inputs":[{"name":"giftId","type":"bytes32","internalType":"bytes32"}],"outputs":[],"stateMutability":"payable"},{"type":"function","name":"createNFTGift","inputs":[{"name":"giftId","type":"bytes32","internalType":"bytes32"},{"name":"nftAddress","type":"address","internalType":"address"},{"name":"tokenId","type":"uint256","internalType":"uint256"}],"outputs":[],"stateMutability":"nonpayable"},{"type":"function","name":"createUSDCGift","inputs":[{"name":"giftId","type":"bytes32","internalType":"bytes32"},{"name":"usdcAddress","type":"address","internalType":"address"},{"name":"amount","type":"uint256","internalType":"uint256"}],"outputs":[],"stateMutability":"nonpayable"},{"type":"function","name":"getGiftInfo","inputs":[{"name":"giftId","type":"bytes32","internalType":"bytes32"}],"outputs":[{"name":"sender","type":"address","internalType":"address"},{"name":"tokenAddress","type":"address","internalType":"address"},{"name":"amountOrTokenId","type":"uint256","internalType":"uint256"},{"name":"isNFT","type":"bool","internalType":"bool"},{"name":"claimed","type":"bool","internalType":"bool"},{"name":"refunded","type":"bool","internalType":"bool"},{"name":"createdAt","type":"uint256","internalType":"uint256"}],"stateMutability":"view"},{"type":"function","name":"gifts","inputs":[{"name":"","type":"bytes32","internalType":"bytes32"}],"outputs":[{"name":"sender","type":"address","internalType":"address"},{"name":"tokenAddress","type":"address","internalType":"address"},{"name":"amountOrTokenId","type":"uint256","internalType":"uint256"},{"name":"isNFT","type":"bool","internalType":"bool"},{"name":"claimed","type":"bool","internalType":"bool"},{"name":"refunded","type":"bool","internalType":"bool"},{"name":"createdAt","type":"uint256","internalType":"uint256"}],"stateMutability":"view"},{"type":"function","name":"onERC721Received","inputs":[{"name":"","type":"address","internalType":"address"},{"name":"","type":"address","internalType":"address"},{"name":"","type":"uint256","internalType":"uint256"},{"name":"","type":"bytes","internalType":"bytes"}],"outputs":[{"name":"","type":"bytes4","internalType":"bytes4"}],"stateMutability":"nonpayable"},{"type":"function","name":"owner","inputs":[],"outputs":[{"name":"","type":"address","internalType":"address"}],"stateMutability":"view"},{"type":"function","name":"refundExpiredGift","inputs":[{"name":"giftId","type":"bytes32","internalType":"bytes32"}],"outputs":[],"stateMutability":"nonpayable"},{"type":"function","name":"refundGift","inputs":[{"name":"giftId","type":"bytes32","internalType":"bytes32"}],"outputs":[],"stateMutability":"nonpayable"},{"type":"function","name":"renounceOwnership","inputs":[],"outputs":[],"stateMutability":"nonpayable"},{"type":"function","name":"transferOwnership","inputs":[{"name":"newOwner","type":"address","internalType":"address"}],"outputs":[],"stateMutability":"nonpayable"},{"type":"event","name":"GiftClaimed","inputs":[{"name":"giftId","type":"bytes32","indexed":true,"internalType":"bytes32"},{"name":"recipient","type":"address","indexed":true,"internalType":"address"}],"anonymous":false},{"type":"event","name":"GiftCreated","inputs":[{"name":"giftId","type":"bytes32","indexed":true,"internalType":"bytes32"},{"name":"sender","type":"address","indexed":true,"internalType":"address"},{"name":"tokenAddress","type":"address","indexed":false,"internalType":"address"},{"name":"amountOrTokenId","type":"uint256","indexed":false,"internalType":"uint256"},{"name":"isNFT","type":"bool","indexed":false,"internalType":"bool"}],"anonymous":false},{"type":"event","name":"GiftExpired","inputs":[{"name":"giftId","type":"bytes32","indexed":true,"internalType":"bytes32"}],"anonymous":false},{"type":"event","name":"GiftRefunded","inputs":[{"name":"giftId","type":"bytes32","indexed":true,"internalType":"bytes32"},{"name":"sender","type":"address","indexed":true,"internalType":"address"}],"anonymous":false},{"type":"event","name":"OwnershipTransferred","inputs":[{"name":"previousOwner","type":"address","indexed":true,"internalType":"address"},{"name":"newOwner","type":"address","indexed":true,"internalType":"address"}],"anonymous":false},{"type":"error","name":"OwnableInvalidOwner","inputs":[{"name":"owner","type":"address","internalType":"address"}]},{"type":"error","name":"OwnableUnauthorizedAccount","inputs":[{"name":"account","type":"address","internalType":"address"}]},{"type":"error","name":"ReentrancyGuardReentrantCall","inputs":[]},{"type":"error","name":"SafeERC20FailedOperation","inputs":[{"name":"token","type":"address","internalType":"address"}]}],"bytecode":{"object":"0x60806040523480156200001157600080fd5b503360016200003562000029620000c960201b60201c565b620000f460201b60201c565b60000181905550600073ffffffffffffffffffffffffffffffffffffffff168173ffffffffffffffffffffffffffffffffffffffff1603620000b15760006040517f1e4fbdf7000000000000000000000000000000000000000000000000000000008152600401620000a8919062000207565b60405180910390fd5b620000c281620000fe60201b60201c565b5062000224565b60007f9b779b17422d0df92223018b32b4d1fa46e071723d6817e2486d003becc55f0060001b905090565b6000819050919050565b60008060009054906101000a900473ffffffffffffffffffffffffffffffffffffffff169050816000806101000a81548173ffffffffffffffffffffffffffffffffffffffff021916908373ffffffffffffffffffffffffffffffffffffffff1602179055508173ffffffffffffffffffffffffffffffffffffffff168173ffffffffffffffffffffffffffffffffffffffff167f8be0079c531659141344cd1fd0a4f28419497f9722a3daafe3b4186f6b6457e060405160405180910390a35050565b600073ffffffffffffffffffffffffffffffffffffffff82169050919050565b6000620001ef82620001c2565b9050919050565b6200020181620001e2565b82525050565b60006020820190506200021e6000830184620001f6565b92915050565b61288b80620002346000396000f3fe6080604052600436106100c25760003560e01c80639b8299281161007f578063da138e1211610059578063da138e121461024b578063e15360bf1461028e578063f2fde38b146102b7578063ff1ad486146102e0576100c2565b80639b829928146101c1578063c9976e6a146101dd578063cdfd882c14610208576100c2565b8063150b7a02146100c7578063492b779114610104578063715018a61461012d5780637b5970ed146101445780638da5cb5b1461016d5780639617cff514610198575b600080fd5b3480156100d357600080fd5b506100ee60048036038101906100e99190611fef565b610309565b6040516100fb91906120ad565b60405180910390f35b34801561011057600080fd5b5061012b600480360381019061012691906120fe565b61031d565b005b34801561013957600080fd5b5061014261058f565b005b34801561015057600080fd5b5061016b600480360381019061016691906120fe565b6105a3565b005b34801561017957600080fd5b5061018261076e565b60405161018f919061213a565b60405180910390f35b3480156101a457600080fd5b506101bf60048036038101906101ba91906120fe565b610797565b005b6101db60048036038101906101d691906120fe565b610b70565b005b3480156101e957600080fd5b506101f2610e41565b6040516101ff9190612164565b60405180910390f35b34801561021457600080fd5b5061022f600480360381019061022a91906120fe565b610e48565b604051610242979695949392919061219a565b60405180910390f35b34801561025757600080fd5b50610272600480360381019061026d91906120fe565b610fc2565b604051610285979695949392919061219a565b60405180910390f35b34801561029a57600080fd5b506102b560048036038101906102b09190612209565b61106b565b005b3480156102c357600080fd5b506102de60048036038101906102d9919061225c565b6113d8565b005b3480156102ec57600080fd5b5061030760048036038101906103029190612209565b61145e565b005b600063150b7a0260e01b9050949350505050565b6103256117ca565b6000600160008381526020019081526020016000209050600073ffffffffffffffffffffffffffffffffffffffff168160000160009054906101000a900473ffffffffffffffffffffffffffffffffffffffff1673ffffffffffffffffffffffffffffffffffffffff16036103cf576040517f08c379a00000000000000000000000000000000000000000000000000000000081526004016103c6906122e6565b60405180910390fd5b8060030160019054906101000a900460ff1615610421576040517f08c379a000000000000000000000000000000000000000000000000000000000815260040161041890612352565b60405180910390fd5b8060030160029054906101000a900460ff1615610473576040517f08c379a000000000000000000000000000000000000000000000000000000000815260040161046a906123be565b60405180910390fd5b62093a808160040154610486919061240d565b4210156104c8576040517f08c379a00000000000000000000000000000000000000000000000000000000081526004016104bf9061248d565b60405180910390fd5b60018160030160026101000a81548160ff0219169083151502179055506104ee816117ed565b817f87b22f8053bcb0b76017fd76264648ff7e076dfe7b6035e5487f83f85a15132960405160405180910390a28060000160009054906101000a900473ffffffffffffffffffffffffffffffffffffffff1673ffffffffffffffffffffffffffffffffffffffff16827f05283cd110f26db701c525cce778f3b5d6c4e627e5b21256707c811452c3660460405160405180910390a35061058c611a72565b50565b610597611a8d565b6105a16000611b14565b565b6105ab6117ca565b60006001600083815260200190815260200160002090503373ffffffffffffffffffffffffffffffffffffffff168160000160009054906101000a900473ffffffffffffffffffffffffffffffffffffffff1673ffffffffffffffffffffffffffffffffffffffff1614610654576040517f08c379a000000000000000000000000000000000000000000000000000000000815260040161064b906124f9565b60405180910390fd5b8060030160019054906101000a900460ff16156106a6576040517f08c379a000000000000000000000000000000000000000000000000000000000815260040161069d90612352565b60405180910390fd5b8060030160029054906101000a900460ff16156106f8576040517f08c379a00000000000000000000000000000000000000000000000000000000081526004016106ef906123be565b60405180910390fd5b60018160030160026101000a81548160ff02191690831515021790555061071e816117ed565b3373ffffffffffffffffffffffffffffffffffffffff16827f05283cd110f26db701c525cce778f3b5d6c4e627e5b21256707c811452c3660460405160405180910390a35061076b611a72565b50565b60008060009054906101000a900473ffffffffffffffffffffffffffffffffffffffff16905090565b61079f6117ca565b6000600160008381526020019081526020016000209050600073ffffffffffffffffffffffffffffffffffffffff168160000160009054906101000a900473ffffffffffffffffffffffffffffffffffffffff1673ffffffffffffffffffffffffffffffffffffffff1603610849576040517f08c379a0000000000000000000000000000000000000000000000000000000008152600401610840906122e6565b60405180910390fd5b8060030160019054906101000a900460ff161561089b576040517f08c379a000000000000000000000000000000000000000000000000000000000815260040161089290612352565b60405180910390fd5b8060030160029054906101000a900460ff16156108ed576040517f08c379a00000000000000000000000000000000000000000000000000000000081526004016108e4906123be565b60405180910390fd5b60018160030160016101000a81548160ff0219169083151502179055508060030160009054906101000a900460ff16156109bd578060010160009054906101000a900473ffffffffffffffffffffffffffffffffffffffff1673ffffffffffffffffffffffffffffffffffffffff166342842e0e303384600201546040518463ffffffff1660e01b815260040161098693929190612519565b600060405180830381600087803b1580156109a057600080fd5b505af11580156109b4573d6000803e3d6000fd5b50505050610b20565b600073ffffffffffffffffffffffffffffffffffffffff168160010160009054906101000a900473ffffffffffffffffffffffffffffffffffffffff1673ffffffffffffffffffffffffffffffffffffffff1603610acb5760003373ffffffffffffffffffffffffffffffffffffffff168260020154604051610a3f90612581565b60006040518083038185875af1925050503d8060008114610a7c576040519150601f19603f3d011682016040523d82523d6000602084013e610a81565b606091505b5050905080610ac5576040517f08c379a0000000000000000000000000000000000000000000000000000000008152600401610abc906125e2565b60405180910390fd5b50610b1f565b610b1e3382600201548360010160009054906101000a900473ffffffffffffffffffffffffffffffffffffffff1673ffffffffffffffffffffffffffffffffffffffff16611bd89092919063ffffffff16565b5b5b3373ffffffffffffffffffffffffffffffffffffffff16827f360aefe28e0ec1a42bc00890806c72a6348292e4731061ed8cba2f91ed04623a60405160405180910390a350610b6d611a72565b50565b610b786117ca565b600073ffffffffffffffffffffffffffffffffffffffff166001600083815260200190815260200160002060000160009054906101000a900473ffffffffffffffffffffffffffffffffffffffff1673ffffffffffffffffffffffffffffffffffffffff1614610c1d576040517f08c379a0000000000000000000000000000000000000000000000000000000008152600401610c149061264e565b60405180910390fd5b60003411610c60576040517f08c379a0000000000000000000000000000000000000000000000000000000008152600401610c57906126ba565b60405180910390fd5b6040518060e001604052803373ffffffffffffffffffffffffffffffffffffffff168152602001600073ffffffffffffffffffffffffffffffffffffffff168152602001348152602001600015158152602001600015158152602001600015158152602001428152506001600083815260200190815260200160002060008201518160000160006101000a81548173ffffffffffffffffffffffffffffffffffffffff021916908373ffffffffffffffffffffffffffffffffffffffff16021790555060208201518160010160006101000a81548173ffffffffffffffffffffffffffffffffffffffff021916908373ffffffffffffffffffffffffffffffffffffffff1602179055506040820151816002015560608201518160030160006101000a81548160ff02191690831515021790555060808201518160030160016101000a81548160ff02191690831515021790555060a08201518160030160026101000a81548160ff02191690831515021790555060c082015181600401559050503373ffffffffffffffffffffffffffffffffffffffff16817ff0188dd79da73d678e80f0ed9368ee070857832dba2da0ffc3bca5b9badcdff56000346000604051610e2e939291906126da565b60405180910390a3610e3e611a72565b50565b62093a8081565b600080600080600080600080600160008a81526020019081526020016000206040518060e00160405290816000820160009054906101000a900473ffffffffffffffffffffffffffffffffffffffff1673ffffffffffffffffffffffffffffffffffffffff1673ffffffffffffffffffffffffffffffffffffffff1681526020016001820160009054906101000a900473ffffffffffffffffffffffffffffffffffffffff1673ffffffffffffffffffffffffffffffffffffffff1673ffffffffffffffffffffffffffffffffffffffff168152602001600282015481526020016003820160009054906101000a900460ff161515151581526020016003820160019054906101000a900460ff161515151581526020016003820160029054906101000a900460ff161515151581526020016004820154815250509050806000015181602001518260400151836060015184608001518560a001518660c00151975097509750975097509750975050919395979092949650565b60016020528060005260406000206000915090508060000160009054906101000a900473ffffffffffffffffffffffffffffffffffffffff16908060010160009054906101000a900473ffffffffffffffffffffffffffffffffffffffff16908060020154908060030160009054906101000a900460ff16908060030160019054906101000a900460ff16908060030160029054906101000a900460ff16908060040154905087565b6110736117ca565b600073ffffffffffffffffffffffffffffffffffffffff166001600085815260200190815260200160002060000160009054906101000a900473ffffffffffffffffffffffffffffffffffffffff1673ffffffffffffffffffffffffffffffffffffffff1614611118576040517f08c379a000000000000000000000000000000000000000000000000000000000815260040161110f9061264e565b60405180910390fd5b6000811161115b576040517f08c379a0000000000000000000000000000000000000000000000000000000008152600401611152906126ba565b60405180910390fd5b600073ffffffffffffffffffffffffffffffffffffffff168273ffffffffffffffffffffffffffffffffffffffff16036111ca576040517f08c379a00000000000000000000000000000000000000000000000000000000081526004016111c19061275d565b60405180910390fd5b6111f73330838573ffffffffffffffffffffffffffffffffffffffff16611c2b909392919063ffffffff16565b6040518060e001604052803373ffffffffffffffffffffffffffffffffffffffff1681526020018373ffffffffffffffffffffffffffffffffffffffff168152602001828152602001600015158152602001600015158152602001600015158152602001428152506001600085815260200190815260200160002060008201518160000160006101000a81548173ffffffffffffffffffffffffffffffffffffffff021916908373ffffffffffffffffffffffffffffffffffffffff16021790555060208201518160010160006101000a81548173ffffffffffffffffffffffffffffffffffffffff021916908373ffffffffffffffffffffffffffffffffffffffff1602179055506040820151816002015560608201518160030160006101000a81548160ff02191690831515021790555060808201518160030160016101000a81548160ff02191690831515021790555060a08201518160030160026101000a81548160ff02191690831515021790555060c082015181600401559050503373ffffffffffffffffffffffffffffffffffffffff16837ff0188dd79da73d678e80f0ed9368ee070857832dba2da0ffc3bca5b9badcdff5848460006040516113c3939291906126da565b60405180910390a36113d3611a72565b505050565b6113e0611a8d565b600073ffffffffffffffffffffffffffffffffffffffff168173ffffffffffffffffffffffffffffffffffffffff16036114525760006040517f1e4fbdf7000000000000000000000000000000000000000000000000000000008152600401611449919061213a565b60405180910390fd5b61145b81611b14565b50565b6114666117ca565b600073ffffffffffffffffffffffffffffffffffffffff166001600085815260200190815260200160002060000160009054906101000a900473ffffffffffffffffffffffffffffffffffffffff1673ffffffffffffffffffffffffffffffffffffffff161461150b576040517f08c379a00000000000000000000000000000000000000000000000000000000081526004016115029061264e565b60405180910390fd5b600073ffffffffffffffffffffffffffffffffffffffff168273ffffffffffffffffffffffffffffffffffffffff160361157a576040517f08c379a0000000000000000000000000000000000000000000000000000000008152600401611571906127c9565b60405180910390fd5b8173ffffffffffffffffffffffffffffffffffffffff166323b872dd3330846040518463ffffffff1660e01b81526004016115b793929190612519565b600060405180830381600087803b1580156115d157600080fd5b505af11580156115e5573d6000803e3d6000fd5b505050506040518060e001604052803373ffffffffffffffffffffffffffffffffffffffff1681526020018373ffffffffffffffffffffffffffffffffffffffff168152602001828152602001600115158152602001600015158152602001600015158152602001428152506001600085815260200190815260200160002060008201518160000160006101000a81548173ffffffffffffffffffffffffffffffffffffffff021916908373ffffffffffffffffffffffffffffffffffffffff16021790555060208201518160010160006101000a81548173ffffffffffffffffffffffffffffffffffffffff021916908373ffffffffffffffffffffffffffffffffffffffff1602179055506040820151816002015560608201518160030160006101000a81548160ff02191690831515021790555060808201518160030160016101000a81548160ff02191690831515021790555060a08201518160030160026101000a81548160ff02191690831515021790555060c082015181600401559050503373ffffffffffffffffffffffffffffffffffffffff16837ff0188dd79da73d678e80f0ed9368ee070857832dba2da0ffc3bca5b9badcdff5848460016040516117b5939291906126da565b60405180910390a36117c5611a72565b505050565b6117d2611c80565b60026117e46117df611cc1565b611cec565b60000181905550565b8060030160009054906101000a900460ff16156118c4578060010160009054906101000a900473ffffffffffffffffffffffffffffffffffffffff1673ffffffffffffffffffffffffffffffffffffffff166323b872dd308360000160009054906101000a900473ffffffffffffffffffffffffffffffffffffffff1684600201546040518463ffffffff1660e01b815260040161188d93929190612519565b600060405180830381600087803b1580156118a757600080fd5b505af11580156118bb573d6000803e3d6000fd5b50505050611a6f565b600073ffffffffffffffffffffffffffffffffffffffff168160010160009054906101000a900473ffffffffffffffffffffffffffffffffffffffff1673ffffffffffffffffffffffffffffffffffffffff16036119f65760008160000160009054906101000a900473ffffffffffffffffffffffffffffffffffffffff1673ffffffffffffffffffffffffffffffffffffffff16826002015460405161196a90612581565b60006040518083038185875af1925050503d80600081146119a7576040519150601f19603f3d011682016040523d82523d6000602084013e6119ac565b606091505b50509050806119f0576040517f08c379a00000000000000000000000000000000000000000000000000000000081526004016119e790612835565b60405180910390fd5b50611a6e565b611a6d8160000160009054906101000a900473ffffffffffffffffffffffffffffffffffffffff1682600201548360010160009054906101000a900473ffffffffffffffffffffffffffffffffffffffff1673ffffffffffffffffffffffffffffffffffffffff16611bd89092919063ffffffff16565b5b5b50565b6001611a84611a7f611cc1565b611cec565b60000181905550565b611a95611cf6565b73ffffffffffffffffffffffffffffffffffffffff16611ab361076e565b73ffffffffffffffffffffffffffffffffffffffff1614611b1257611ad6611cf6565b6040517f118cdaa7000000000000000000000000000000000000000000000000000000008152600401611b09919061213a565b60405180910390fd5b565b60008060009054906101000a900473ffffffffffffffffffffffffffffffffffffffff169050816000806101000a81548173ffffffffffffffffffffffffffffffffffffffff021916908373ffffffffffffffffffffffffffffffffffffffff1602179055508173ffffffffffffffffffffffffffffffffffffffff168173ffffffffffffffffffffffffffffffffffffffff167f8be0079c531659141344cd1fd0a4f28419497f9722a3daafe3b4186f6b6457e060405160405180910390a35050565b611be58383836001611cfe565b611c2657826040517f5274afe7000000000000000000000000000000000000000000000000000000008152600401611c1d919061213a565b60405180910390fd5b505050565b611c39848484846001611d68565b611c7a57836040517f5274afe7000000000000000000000000000000000000000000000000000000008152600401611c71919061213a565b60405180910390fd5b50505050565b611c88611de3565b15611cbf576040517f3ee5aeb500000000000000000000000000000000000000000000000000000000815260040160405180910390fd5b565b60007f9b779b17422d0df92223018b32b4d1fa46e071723d6817e2486d003becc55f0060001b905090565b6000819050919050565b600033905090565b60008063a9059cbb60e01b90506040518160005260001960601c8616600452846024526020600060446000808b5af192506001600051148316611d5a578383151615611d4d573d6000823e3d81fd5b6000873b113d1516831692505b806040525050949350505050565b6000806323b872dd60e01b90506040518160005260001960601c871660045260001960601c8616602452846044526020600060646000808c5af192506001600051148316611dcf578383151615611dc2573d6000823e3d81fd5b6000883b113d1516831692505b806040526000606052505095945050505050565b60006002611df7611df2611cc1565b611cec565b6000015414905090565b6000604051905090565b600080fd5b600080fd5b600073ffffffffffffffffffffffffffffffffffffffff82169050919050565b6000611e4082611e15565b9050919050565b611e5081611e35565b8114611e5b57600080fd5b50565b600081359050611e6d81611e47565b92915050565b6000819050919050565b611e8681611e73565b8114611e9157600080fd5b50565b600081359050611ea381611e7d565b92915050565b600080fd5b600080fd5b6000601f19601f8301169050919050565b7f4e487b7100000000000000000000000000000000000000000000000000000000600052604160045260246000fd5b611efc82611eb3565b810181811067ffffffffffffffff82111715611f1b57611f1a611ec4565b5b80604052505050565b6000611f2e611e01565b9050611f3a8282611ef3565b919050565b600067ffffffffffffffff821115611f5a57611f59611ec4565b5b611f6382611eb3565b9050602081019050919050565b82818337600083830152505050565b6000611f92611f8d84611f3f565b611f24565b905082815260208101848484011115611fae57611fad611eae565b5b611fb9848285611f70565b509392505050565b600082601f830112611fd657611fd5611ea9565b5b8135611fe6848260208601611f7f565b91505092915050565b6000806000806080858703121561200957612008611e0b565b5b600061201787828801611e5e565b945050602061202887828801611e5e565b935050604061203987828801611e94565b925050606085013567ffffffffffffffff81111561205a57612059611e10565b5b61206687828801611fc1565b91505092959194509250565b60007fffffffff0000000000000000000000000000000000000000000000000000000082169050919050565b6120a781612072565b82525050565b60006020820190506120c2600083018461209e565b92915050565b6000819050919050565b6120db816120c8565b81146120e657600080fd5b50565b6000813590506120f8816120d2565b92915050565b60006020828403121561211457612113611e0b565b5b6000612122848285016120e9565b91505092915050565b61213481611e35565b82525050565b600060208201905061214f600083018461212b565b92915050565b61215e81611e73565b82525050565b60006020820190506121796000830184612155565b92915050565b60008115159050919050565b6121948161217f565b82525050565b600060e0820190506121af600083018a61212b565b6121bc602083018961212b565b6121c96040830188612155565b6121d6606083018761218b565b6121e3608083018661218b565b6121f060a083018561218b565b6121fd60c0830184612155565b98975050505050505050565b60008060006060848603121561222257612221611e0b565b5b6000612230868287016120e9565b935050602061224186828701611e5e565b925050604061225286828701611e94565b9150509250925092565b60006020828403121561227257612271611e0b565b5b600061228084828501611e5e565b91505092915050565b600082825260208201905092915050565b7f4769667420646f6573206e6f7420657869737400000000000000000000000000600082015250565b60006122d0601383612289565b91506122db8261229a565b602082019050919050565b600060208201905081810360008301526122ff816122c3565b9050919050565b7f4769667420616c726561647920636c61696d6564000000000000000000000000600082015250565b600061233c601483612289565b915061234782612306565b602082019050919050565b6000602082019050818103600083015261236b8161232f565b9050919050565b7f4769667420616c726561647920726566756e6465640000000000000000000000600082015250565b60006123a8601583612289565b91506123b382612372565b602082019050919050565b600060208201905081810360008301526123d78161239b565b9050919050565b7f4e487b7100000000000000000000000000000000000000000000000000000000600052601160045260246000fd5b600061241882611e73565b915061242383611e73565b925082820190508082111561243b5761243a6123de565b5b92915050565b7f4769667420686173206e6f742065787069726564207965740000000000000000600082015250565b6000612477601883612289565b915061248282612441565b602082019050919050565b600060208201905081810360008301526124a68161246a565b9050919050565b7f4f6e6c792073656e6465722063616e20726566756e6400000000000000000000600082015250565b60006124e3601683612289565b91506124ee826124ad565b602082019050919050565b60006020820190508181036000830152612512816124d6565b9050919050565b600060608201905061252e600083018661212b565b61253b602083018561212b565b6125486040830184612155565b949350505050565b600081905092915050565b50565b600061256b600083612550565b91506125768261255b565b600082019050919050565b600061258c8261255e565b9150819050919050565b7f455448207472616e73666572206661696c656400000000000000000000000000600082015250565b60006125cc601383612289565b91506125d782612596565b602082019050919050565b600060208201905081810360008301526125fb816125bf565b9050919050565b7f4769667420494420616c72656164792065786973747300000000000000000000600082015250565b6000612638601683612289565b915061264382612602565b602082019050919050565b600060208201905081810360008301526126678161262b565b9050919050565b7f416d6f756e74206d7573742062652067726561746572207468616e2030000000600082015250565b60006126a4601d83612289565b91506126af8261266e565b602082019050919050565b600060208201905081810360008301526126d381612697565b9050919050565b60006060820190506126ef600083018661212b565b6126fc6020830185612155565b612709604083018461218b565b949350505050565b7f496e76616c696420746f6b656e20616464726573730000000000000000000000600082015250565b6000612747601583612289565b915061275282612711565b602082019050919050565b600060208201905081810360008301526127768161273a565b9050919050565b7f496e76616c6964204e4654206164647265737300000000000000000000000000600082015250565b60006127b3601383612289565b91506127be8261277d565b602082019050919050565b600060208201905081810360008301526127e2816127a6565b9050919050565b7f45544820726566756e64206661696c6564000000000000000000000000000000600082015250565b600061281f601183612289565b915061282a826127e9565b602082019050919050565b6000602082019050818103600083015261284e81612812565b905091905056fea2646970667358221220e60a7c01219c8b93020138fcd6861c8a7d1c0f0b930bd5b7f3933ff5635aa9e164736f6c63430008140033","linkReferences":{}},"methodIdentifiers":{"GIFT_EXPIRY()":"c9976e6a","claimGift(bytes32)":"9617cff5","createETHGift(bytes32)":"9b829928","createNFTGift(bytes32,address,uint256)":"ff1ad486","createUSDCGift(bytes32,address,uint256)":"e15360bf","getGiftInfo(bytes32)":"cdfd882c","gifts(bytes32)":"da138e12","onERC721Received(address,address,uint256,bytes)":"150b7a02","owner()":"8da5cb5b","refundExpiredGift(bytes32)":"492b7791","refundGift(bytes32)":"7b5970ed","renounceOwnership()":"715018a6","transferOwnership(address)":"f2fde38b"},"id":13}